:020000040800F2
:10000000002000200D0D000811070008130700084C
:1000100000000000000000000000000000000000E0
:1000200000000000000000000000000015070008AC
:100030000000000000000000170700081907000872
:100040005D0D00085D0D00085D0D00085D0D0008E8
:100050005D0D00085D0D00085D0D00085D0D0008D8
:100060005D0D00085D0D00085D0D00085D0D0008C8
:100070005D0D00085D0D00085D0D00085D0D0008B8
:100080005D0D00085D0D0008000000005D0D00081A
:100090005D0D0008890500085D0D00085D0D000874
:1000A0005D0D00085D0D00085D0D00085D0D000888
:1000B0005D0D0008000000005D0D0008000000005C
:1000C00010B5064C2378002B07D1054B002B02D02E
:1000D000044800E000BF0123237010BD0C00002085
:1000E00000000000B80D0008044B10B5002B03D031
:1000F0000349044800E000BF10BDC04600000000F6
:1001000010000020B80D0008002243088B4274D371
:1001100003098B425FD3030A8B4244D3030B8B4208
:1001200028D3030C8B420DD3FF22090212BA030C11
:100130008B4202D31212090265D0030B8B4219D3F2
:1001400000E0090AC30B8B4201D3CB03C01A524112
:10015000830B8B4201D38B03C01A5241430B8B425A
:1001600001D34B03C01A5241030B8B4201D30B0343
:10017000C01A5241C30A8B4201D3CB02C01A52416A
:10018000830A8B4201D38B02C01A5241430A8B422D
:1001900001D34B02C01A5241030A8B4201D30B0216
:1001A000C01A5241CDD2C3098B4201D3CB01C01A30
:1001B000524183098B4201D38B01C01A524143093A
:1001C0008B4201D34B01C01A524103098B4201D328
:1001D0000B01C01A5241C3088B4201D3CB00C01A95
:1001E000524183088B4201D38B00C01A524143080D
:1001F0008B4201D34B00C01A5241411A00D2014632
:10020000524110467047FFE701B5002000F006F8A4
:1002100002BDC0460029F7D076E770477047C04658
:10022000204842698023DB02134343611E4B196857
:10023000802212050A431A601968802292050A4337
:100240001A601968802212060A431A60196880220F
:1002500052040A431A60996980225201114399613C
:10026000C3698021C9010B43C361104B1868014366
:10027000196019681820014319601968143801437E
:10028000196059680A435A605A6802435A605968AB
:10029000E022D2000A435A601A6840210A431A60D9
:1002A0007047C0460010024000040048003800407B
:1002B00082B00300002201924000C01804E0C04652
:1002C000C046019B01330193019B8342F7D302B0E7
:1002D0007047000070B505000C00274A9169802323
:1002E0005B050B4393610120FFF7E2FF234B0622DE
:1002F0001A70234B9B68DB07FBD5214BDB681E4E36
:10030000B26980235B011343B3611E48FFF7D0FF3E
:10031000B26980235B051343B3610120FFF7C8FF77
:10032000164B02221A70164B9B68DB07FBD5144B49
:10033000DB682B0A114A1370114B9B68DB07FBD556
:100340000F4BDB680D4B1D700D4B9B68DB07FBD51E
:100350000B4BDB68094B1C70094B9B68DB07FBD51B
:10036000074BDB68044A916980235B010B4393616F
:100370000448FFF79DFF70BD000400480C380040A2
:10038000003800408813000010B504001B4A916932
:1003900080235B050B4393610120FFF789FF184B16
:1003A00003221A70174B9B68DB07FBD5154BDB68E4
:1003B000230A134A1370134B9B68DB07FBD5114BC1
:1003C000DB680F4B1C700F4B9B68DB07FBD50D4B9D
:1003D000DB680B4B42221A700A4B9B68DB07FBD58C
:1003E000084BDC68E4B2054A916980235B010B434A
:1003F00093610548FFF75CFF200010BD0004004832
:100400000C3800400038004088130000F0B5DE468C
:1004100057464E464546E0B58DB00AAF082399468B
:1004200008220021380000F09AFC1822002104A8BC
:1004300000F095FC514B5A698021C9030A435A6167
:100440005A690A400392039A5A69802189020A4331
:100450005A615A690A400292029A5A698021C90275
:100460000A435A615B690B400193019B444D01268D
:10047000AE6202239B46AB6202339A46AB624B46A6
:10048000AB6208339846AB621033AB624022AA627B
:100490008021A9623B4A936871398B439360902213
:1004A000D205D3680C398B433343D36013688B4335
:1004B00013600A963E7100247C71BE71380000F012
:1004C000D1F90496059606940794089404A80100AF
:1004D000280000F026F958460490059606940794E3
:1004E000089404A80100280000F01BF9504604906D
:1004F000059606940794089404A80100280000F0CB
:1005000010F948460490059606940794089404A8A8
:100510000100280000F005F9404604900596069475
:100520000794089404A80100280000F0FAF820239A
:100530000493059606940794089404AB19002800C8
:1005400000F0EFF840220492059606940794089470
:1005500004AB1900280000F0E4F88021049105960E
:1005600006940794089404A9280000F0DAF80DB066
:10057000F0BCBB46B246A946A046F0BD0010024002
:10058000000400480000014010B51B4800F05DFA6F
:100590001A4B1B4C22885200D05AFFF7F5FE2388D5
:1005A000184AD25C904205D0174A536901210B4387
:1005B000536110BD042B0ED9052BFAD10F4A5B00F5
:1005C000985AFFF7E1FE104A5369034353610C4BFD
:1005D00000221A80EDE7094A5B00985AFFF7D4FE23
:1005E000094B5A6902435A6100225A61044A13882E
:1005F00001331380DDE7C04628000020D00D00083D
:1006000070000020DC0D00080004004872B6FEE710
:1006100010B50C480C4B03600C4B43600023836007
:100620000B4AC260036143618033836100F00CFBBD
:10063000002804D1074B802292031A6010BDFFF7F7
:10064000E5FFC04628000020004401403F1F000095
:10065000E703000000E100E010B51A4A1368012129
:100660008B431360174B1B68DB07FBD4164A1368D8
:1006700001210B431360144B1B689B07FBD5124BE6
:100680001A68F8218A4378390A431A605A68703127
:100690008A435A605A680D490A405A605A680321D1
:1006A0008A435A60084B5B680C221A42FAD1084808
:1006B00000F026FB032000F091F8002800D110BDC7
:1006C000FFF7A4FF0020024000100240FFF8FFFFE8
:1006D00000127A0010B500F0A9F8FFF7BDFFFFF790
:1006E0009FFDFFF793FEFFF793FF074800F072F9B5
:1006F000002406E0054B195D2000FFF7EBFD0134F7
:10070000A4B2052CF6D9FEE728000020DC0D000875
:10071000FEE7FEE77047704710B500F097F810BD90
:100720007047F0B5002216E00B699C46C4682B00A8
:100730006B435E00F618F743B44366465E433443AA
:10074000C4604C68022C26D04D6804683C406B4362
:100750002343036001320C682300D3403BD00123C4
:10076000934025001D401C42F4D04B68013B012BF7
:10077000DAD88F6883682C006C4366003619B3435F
:100780007C43234383600E68CC684368B34374435F
:1007900023434360C8E7FF2D0DD84C69A446066A81
:1007A0001C006C436C4325012D1BAE4365466C4316
:1007B00034430462C8E74C69A446466A2D0A2C00FB
:1007C0006C436C436C4325012D1BAE4365466C4363
:1007D00034434462B8E70020F0BD000010B50400C7
:1007E0000F4B1978FA208000FFF78EFC01000D4BAB
:1007F0001868FFF789FC00F0E9F800280DD1032CF8
:1008000001D901200AE0013000222100404200F01D
:10081000D9F8054B1C60002000E0012010BDC04647
:1008200004000020000000200800002010B5064A47
:10083000136810210B4313600320FFF7CFFF00F074
:1008400031FA002010BDC04600200240034A116862
:10085000034B1B785B1813607047C0467400002080
:100860000400002010B503000079002850D01A6859
:10087000002A57D05879012818D0022820D0002803
:100880000BD001209A79002A4BD0022A2CD0032ABF
:1008900034D0012A1ED0012043E023494C68944300
:1008A0004C601A680C6822430A60EBE71E4908682E
:1008B000904308601A68486802434A600020E1E7F4
:1008C0001949086802430A601A68486802434A6086
:1008D0000020D7E71C68144AD168A143D1601B6887
:1008E00091680B4393601CE01C680F4A9168A14318
:1008F00091601B68D1680B43D36012E019680A4A03
:100900009468214391601B68D1680B43D36008E071
:100910001C68054A1168A1431160196853688B432C
:10092000536010BD0020FCE70004014070B50028B2
:1009300011DB8308134DC0339B005C590322104028
:10094000C000FC3216008640B44389010A40824050
:1009500022435A5170BD0F230340083B9B080633C6
:100960009B00094A944663445C6803221040C0001F
:10097000FC3215008540AC4389010A408240224385
:100980005A60E7E700E100E000ED00E00138802375
:100990005B0498420FD2094A50600948036A1B025F
:1009A0001B0AC02109060B4303620023936007332F
:1009B0001360002070470120FCE7C04610E000E013
:1009C00000ED00E010B5FFF7B1FF10BD10B5FFF767
:1009D000DDFF10BD3D23C35C012B26D13C33022239
:1009E000C2540268D36801210B43D3600368114AE3
:1009F00093420FD08022D20593420BD00E4A9342ED
:100A000008D00E4A934205D01A6801210A431A60A1
:100A100000200BE0996807220A40062A07D01A68CE
:100A200001210A431A60002000E0012070470020E5
:100A3000FCE7C046002C014000040040004001409B
:100A40007047704770477047704710B504000268E0
:100A500013699B070FD5D3689B070CD503235B4213
:100A600013610433037703689B699B0763D0FFF727
:100A7000E9FF00232377226813695B0712D5D36847
:100A80005B070FD505235B42136107332377236888
:100A90009A69C0239B001A4253D02000FFF7D2FF6F
:100AA00000232377226813691B0710D5D3681B071F
:100AB0000DD509235B4213610D3323772368DB696E
:100AC0009B0745D02000FFF7BDFF00232377226856
:100AD0001369DB0612D5D368DB060FD511235B4201
:100AE0001361193323772368DA69C0239B001A4204
:100AF00035D02000FFF7A6FF002323772268136973
:100B0000DB0702D5D368DB0730D4226813691B06E4
:100B100002D5D3681B0630D4226813695B0602D560
:100B2000D3685B0630D4226813699B0602D5D3686C
:100B30009B0630D410BDFFF784FF2000FFF783FF32
:100B400097E72000FFF77DFF2000FFF77CFFA7E776
:100B50002000FFF776FF2000FFF775FFB5E72000C4
:100B6000FFF76FFF2000FFF76EFFC5E702235B4230
:100B700013612000FFF764FFC7E781235B42136125
:100B8000200000F08EF8C7E741235B42136120008C
:100B9000FFF75AFFC7E721235B421361200000F0F3
:100BA0007FF8C7E70368214A904206D08022D20529
:100BB000904202D01E4A904203D1702293434A6869
:100BC00013431A4A904212D08022D20590420ED08E
:100BD000174A90420BD0174A904208D0164A9042CA
:100BE00005D0164A904202D0154A904203D1154AC8
:100BF0001A40CB681343802293434A69134303602E
:100C00008B68C3620B688362084B984208D00A4B1A
:100C1000984205D0094B984202D0094B984201D125
:100C20000B690363012343617047C046002C0140F8
:100C3000000400400020004000400140004401400A
:100C400000480140FFFCFFFF70B5041E26D03D2385
:100C5000C35C002B1CD03D2502236355210001C934
:100C6000FFF7A0FF01234622A354083AA354013200
:100C7000A3540132A3540132A3540132A3540132CC
:100C8000A3540132A3540132A3546355002070BD14
:100C90003C330022C25400F01DF8DCE70120F6E7E7
:100CA0007047704782B00A4B9969012211439961DC
:100CB00099690A400092009ADA69802149050A433D
:100CC000DA61DB690B400193019B02B07047C046BB
:100CD0000010024082B00268074B9A4201D002B075
:100CE0007047064B9A69802189020A439A619B6981
:100CF0000B400193019BF2E70044014000100240C9
:100D0000014B18607047C046000000200D48854622
:100D1000FFF706FD0C480D490D4A002302E0D458A8
:100D2000C4500433C4188C42F9D30A4A0A4C002335
:100D300001E013600432A242FBD300F019F8FFF780
:100D4000C9FCFEE700200020000000200C0000206D
:100D5000EC0D00080C00002078000020FEE70300E6
:100D60008218934200D1704719700133F9E70000EF
:100D700070B500260C4C0D4D641BA410A64209D181
:100D8000002600F019F80A4C0A4D641BA410A64274
:100D900005D170BDB300EB5898470136EEE7B300BC
:100DA000EB5898470136F2E7E40D0008E40D00081F
:100DB000E80D0008E40D0008F8B5C046F8BC08BC12
:100DC0009E467047F8B5C046F8BC08BC9E467047C2
:100DD000000001000200030004000500AA55CC3306
:040DE000F00F000010
:040DE400E90000081A
:040DE800C10000083E
:0C0DEC0000127A0001000000040000006A
:0400000508000D0DD5
:00000001FF
